:100000000C9434000C9449000C9449000C94490061
:100010000C9449000C9449000C9449000C9449003C
:100020000C9449000C9449000C9449000C9449002C
:100030000C9449000C9449000C9449000C9449001C
:100040000C9449000C9449000C9449000C9449000C
:100050000C9449000C9449000C9449000C944900FC
:100060000C9449000C94490011241FBECFEFD8E036
:10007000DEBFCDBF17E0A0E0B1E0E8E3F6E002C0EC
:1000800005900D92A430B107D9F70E949E020C94FE
:100090001A030C940000EAE7F0E08081836080831B
:1000A000ACE7B0E08C9180648C93ABE7B0E08C91CE
:1000B0008B7F8C938C918D7F8C938C918E7F8C9386
:1000C0008081806280838081806880838081806479
:1000D000808308958EEA0E94790280E00E9479026E
:1000E00080E10E94790280E40E94790281E80E9406
:1000F00079028FEC0E94790281EA0E94790288ECF1
:100100000E94790286EA0E94790284EA0E947902BA
:1001100088EA0E9479028FE30E94790283ED0E94AF
:10012000790280E00E94790285ED0E94790280E8E0
:100130000E94790289ED0E94790281EF0E94790282
:100140008AED0E94790282E10E9479028BED0E9481
:10015000790280E40E94790280E20E94790280E0C4
:100160000E94790280E40E9479028DE80E9479025F
:1001700084E10E94790284EA0E9479028FEA0C9459
:100180007902FB0177FD379623E0F595E7952A95EF
:10019000E1F7F695FE2FEE27F795E795E80FF91FA3
:1001A000EB51FD4F6770772781E090E0062E01C08C
:1001B000880F0A94EAF79081982B90830895FC01A8
:1001C00080E094E0DF019C011D9221503040E1F776
:1001D0000895AF92BF92CF92DF92EF92FF920F936A
:1001E0001F93CF93DF937A0188E70E94260281E272
:1001F0000E94790280E00E9479028FE70E947902D2
:1002000082E20E94790280E00E94790287E00E94E7
:100210007902B090B8008CE08093B800C0E0D0E0E4
:10022000AA24AA9488E70E942602882321F00E942B
:100230007102A5B818C080E40E94790200E010E0C5
:100240006701CC0EDD1EF601E00FF11F80810E94D8
:1002500079020F5F1F4F00311105A9F72F960E94F9
:100260007102B092B8002196C11584E0D807D0F28F
:10027000DF91CF911F910F91FF90EF90DF90CF9082
:10028000BF90AF90089590E050E8659F800D911D5C
:100290001124280F391F85E0489FA00111244050E8
:1002A0005F4F80E090E0FA01E80FF91FE05AF10992
:1002B0006081F90161939F0101968530910599F75D
:1002C0000895CF92DF92FF920F931F93CF93DF9306
:1002D0001F92CDB7DEB7982FF62E89016A0108C0AC
:1002E00098016F2D892F99830E94430199819B5F0B
:1002F000F60141916F014111F3CF0F90DF91CF9142
:100300001F910F91FF90DF90CF900895CF93DF93CF
:1003100000D000D0CDB7DEB790917C00907F909355
:100320007C00813089F580917C00816080937C0025
:1003300025EE32E045EE56E060E070E080E090E0CF
:100340000E94610180917A00806480937A0080919C
:100350007800909179004AE050E0BE016F5F7F4FD6
:100360000E94D50225EE32E048EF56E062E070E0F0
:1003700080E090E00E94610125EE32E0AE014F5F27
:100380005F4F62E070E051C0823039F580917C00AF
:10039000826080937C0080917A00806480937A00F0
:1003A00080917800909179004AE050E0BE016F5F43
:1003B0007F4F0E94D50225EE32E04CEF56E063E01D
:1003C00070E080E090E00E94610125EE32E0AE0135
:1003D0004F5F5F4F63E070E028C0833051F580913C
:1003E0007C00836080937C0080917A00806480939D
:1003F0007A0080917800909179004AE050E0BE0147
:100400006F5F7F4F0E94D50225EE32E040E057E05B
:1004100064E070E080E090E00E94610125EE32E04F
:10042000AE014F5F5F4F64E070E08DE090E00E94AE
:1004300061010F900F900F900F90DF91CF91089571
:100440001092B90080E28093B800089594EA9093E6
:10045000BC009091BC0097FFFCCF9091B900987FB1
:10046000983021F0903111F081E008958093BB0025
:1004700084E88093BC008091BC0087FFFCCF809112
:10048000B900887F883111F0803471F780E00895D9
:1004900024EA34E844E92093BC009091BC0097FF23
:1004A000FCCF9091B900987F983011F0903199F776
:1004B0008093BB003093BC009091BC0097FFFCCFB1
:1004C0009091B900987F903211F0983539F44093AB
:1004D000BC009091BC0094FDFCCFDDCF08950C943E
:1004E000260284E98093BC008091BC0084FDFCCF8F
:1004F00008958093BB0084E88093BC008091BC0089
:1005000087FFFCCF9091B900987F81E0983209F481
:1005100080E0089584EC8093BC008091BC0087FF4C
:10052000FCCF8091BB00089584E88093BC0080914B
:10053000BC0087FFFCCF8091BB000895CFEFC4B90A
:1005400015B80E94200288E70E942602882321F025
:100550000E947102C5B904C00E946A000E944B004B
:10056000CFEF85EE92E00E94DF0081E090E00E94F4
:10057000860182E090E00E94860183E090E00E9484
:10058000860115B845EE52E060E070E080E090E052
:100590000E94E900C5B92FEF84E39CE02150804020
:1005A0009040E1F700C00000DCCFFB019F01E89420
:1005B0004230C4F04532B4F44A3029F497FB1EF4BB
:1005C000909581959F4F642F77270E940603805D49
:1005D0008A330CF0895D8193CB010097A1F716F463
:1005E0005DE251931082C9010C94F602DC01FC011A
:1005F000672F71917723E1F7329704C07C916D9357
:1006000070836291AE17BF07C8F30895AA1BBB1B86
:1006100051E107C0AA1FBB1FA617B70710F0A61B02
:10062000B70B881F991F5A95A9F780959095BC0123
:08063000CD010895F894FFCFFD
:10063800000000000000004F000000070007001441
:100648007F147F14242A7F2A1223130864623649F0
:100658005522500005030000001C224100004122E1
:100668001C0014083E081408083E08080050300012
:10067800000808080808006060000020100804024C
:100688003E5149453E00427F400042615149462162
:1006980041454B311814127F1027454545393C4ACE
:1006A800494930017109050336494949360649491E
:1006B800291E003636000000563600000814224174
:1006C80000141414141400412214080201510906DC
:1006D800324979413E7E1111117E7F494949363EA2
:1006E800414141227F4141221C7F494949417F09BB
:1006F8000909013E4149497A7F0808087F00417F7E
:1007080041002040413F017F081422417F40404082
:10071800407F020C027F7F0408107F3E4141413E2A
:100728007F090909063E4151215E7F09192946467C
:100738004949493101017F01013F4040403F1F20A5
:1007480040201F3F4038403F631408146307087077
:1007580008076151494543007F41410002040810E0
:10076800200041417F000402010204404040404013
:10077800010204000020545454787F484444383817
:1007880044444420384444487F3854545418087E1C
:10079800090102064949493F7F0804047800447D5D
:1007A80040002040443D007F1028440000417F4025
:1007B800007C0418047C7C080404783844444438D9
:1007C8007C14141408081414187C7C0804040848C1
:1007D80054545420043F4440203C4040207C1C207A
:1007E80040201C3C4030403C44281028440C5050C9
:1007F800503C4464544C44000836410000007F00DB
:100808000000413608000201020402080C0E0C0820
:100818000818381808AA55AA55AA55AA55AA55AAB3
:1008280055AA55AA55AA55AA55AA55AA55AA55AAC8
:1008380055AA55AA55AA55AA55AA55AA55AA55AAB8
:1008480055AA55AA55AA55AA55AA55AA55AA55AAA8
:1008580055AA55AA55AA55AA55AA55AA55AA55AA98
:100C180055AA55AA554144584C333335205265617D
:100C280064696E67733A2000583A2000593A2000E8
:040C38005A3A200004
:00000001FF
